S0100000436F6E74726F6C732E73726563C0
S11300000C942A000C943F000C943F000C943F0085
S11300100C943F000C943F000C943F000C943F0060
S11300200C943F000C943F000C943F000C943F0050
S11300300C943F000C943F000C943F000C943F0040
S11300400C943F000C943F000C943F000C943F0030
S11300500C943F0011241FBECFE5D8E0DEBFCDBF16
S113006010E0A0E6B0E0E0EEF0E002C005900D92F2
S1130070A038B107D9F70E9441000C946E000C948B
S1130080000080E884BF84BF81E18ABB8FEF87BB17
S113009081BB2FEF422F50E060E070E089B390E025
S11300A0A0E0B0E081719170AA27B0714817590798
S11300B06A077B0779F329B32171E22FF0E0EE0F91
S11300C0FF1FE05AFF4F808188BB818182BB83ED93
S11300D090E30197F1F700C00000DCCFF894FFCF64
S11300E01408050501090009400408000209020575
S11300F0060903050409800706052408040500050C
S9030000FC
