:100000000C942A000C943C000C943C000C943C0092
:100010000C943C000C943C000C943C000C943C0070
:100020000C943C000C943C000C943C000C943C0060
:100030000C943C000C943C000C943C000C943C0050
:100040000C943C000C943C000C943C000C943C0040
:100050000C943C0011241FBECFE5D8E0DEBFCDBF1D
:1000600020E0A0E6B0E001C01D92A037B207E1F7A2
:100070000E944A000C9491000C94000080E090E0F3
:100080008031910534F4FC01E05AFF4F1082019653
:10009000F7CF089580E884BF84BF80EF8ABB87BB19
:1000A00087E881BB8FEF84BB0E943E0020E0E0E048
:1000B00080E003C0802FEF2D2C2F19B3012F0F707C
:1000C000F6B2C0B3D0E0D595C795D595C795D5956F
:1000D000C79513FF09C00E943E0087EA91E6019789
:1000E000F1F700C0000013C0982F902792FF0FC0B7
:1000F00082FF07C080FF05C0EF70F0E0E05AFF4FBD
:10010000208387EA91E60197F1F700C0000011FF14
:10011000D1CFEF2DEF70F0E0E05AFF4F808185BB2B
:06012000C9CFF894FFCFE7
:00000001FF
