:100000000C942A000C9434000C9434000C943400AA
:100010000C9434000C9434000C9434000C94340090
:100020000C9434000C9434000C9434000C94340080
:100030000C9434000C9434000C9434000C94340070
:100040000C9434000C9434000C9434000C94340060
:100050000C94340011241FBECFE5D8E0DEBFCDBF25
:100060000E9436000C947E000C94000080E884BF4F
:1000700084BF80EF8ABB87BB87E081BB88EF84BBEE
:1000800093B3977046B3842F8F7036B3532F5F703E
:10009000911102C0850F2AC0913011F4851B26C032
:1000A000923021F4842F83238F7020C0933021F469
:1000B000842F832B8F701AC0943029F4842F832BC4
:1000C0008F70809513C0953029F401C0880F5A9520
:1000D000EAF70CC0963049F4282F30E0C90102C07D
:1000E000959587955A95E2F701C080E08F7009F4E5
:1000F0008068880F880F880F82BBC2CFF894FFCF2B
:00000001FF
